:020000040800F2
:1000000018040020450100082F030008DD02000845
:100010002D0300082F0200087906000800000000E8
:10002000000000000000000000000000FD030008C8
:10003000310200080000000031030008B504000888
:100040005F0100085F0100085F0100085F01000810
:100050005F0100085F0100085F0100085F01000800
:100060005F0100085F0100085F0100085F010008F0
:100070005F0100085F0100085F0100085F010008E0
:100080005F0100085F0100085F0100085F010008D0
:100090005F0100085F0100085F0100085F010008C0
:1000A0005F0100085F0100085F0100085F010008B0
:1000B0005F0100085F0100085F0100085F010008A0
:1000C0005F0100085F0100085F0100085F01000890
:1000D0005F0100085F0100085F0100085F01000880
:1000E0005F0100085F0100085F0100085F01000870
:1000F0005F0100085F0100085F0100085F01000860
:100100005F0100085F0100085F0100085F0100084F
:100110005F0100085F0100085F0100085F0100083F
:100120005F0100085F0100085F0100085F0100082F
:10013000DFF80CD000F04AF800480047710F0008C3
:10014000180400200648804706480047FEE7FEE7FF
:10015000FEE7FEE7FEE7FEE7FEE7FEE7FEE7FEE777
:10016000B9040008310100082DE9F05F05460020C0
:1001700092469B4688460646814640241BE0284618
:1001800041464746224600F042F853465A46C01AB6
:10019000914110D311461846224600F029F82D1A35
:1001A00067EB01084F4622460120002100F020F8AD
:1001B00017EB00094E41201EA4F10104DFDC484684
:1001C00031462A464346BDE8F09F0000064C074DE5
:1001D00006E0E06840F0010394E807009847103417
:1001E000AC42F6D3FFF7A8FFBC0F0008DC0F0008F5
:1001F000202A04DB203A00FA02F1002070479140E7
:10020000C2F1200320FA03F3194390407047202ADB
:1002100004DB203A21FA02F00021704721FA02F3B0
:10022000D040C2F120029140084319467047FEE7D2
:1002300070472DE9F0410022CC7804F00F03E4066A
:1002400001D58C7823430C784FF00F0714F0FF0F83
:100250004FF0010C1CD005680CFA02F40E88264001
:10026000A64211D1960007FA06F825EA080503FA16
:1002700006F848EA0505CE78282E02D0482E02D08E
:1002800002E0446100E00461521C082AE4D30560E6
:100290000A88FF2A1ED94568002202F108060CFAD6
:1002A00006F40E882640A64210D1960007FA06F8FA
:1002B00025EA080503FA06F848EA0505CE78282E4F
:1002C00000D14461CE78482E00D10461521C082A26
:1002D000E3D34560BDE8F08101617047FEE70000AF
:1002E00038B50121102000F025F80420ADF80000F9
:1002F00010208DF8030003208DF802000A4C694697
:100300002046FFF796FF0821ADF800106946204609
:10031000FFF78FFF04212046FFF7DEFF082120466C
:10032000FFF7DAFF38BD000000100140FEE770471C
:1003300070470000054A002903D09169014391618B
:10034000704791698143916170470000001002403D
:1003500010B5264A516801F00C01254B002927D021
:10036000042927D0082927D00360516801F0F00143
:100370000909204B5C5C0168E1404160546804F469
:10038000E064240A1C5D21FA04F48460546804F4D7
:100390006054E40A1B5DD940C160526802F44042D7
:1003A000920B144B1B1F9A5CB1FBF2F1016110BD63
:1003B0000360DAE70360D8E7516801F4701153680D
:1003C00003F48033022404EB914133B153689B035F
:1003D00007D5094B59430160C7E7074B59430160F3
:1003E000C3E7034B59430160BFE700000010024020
:1003F00000127A000400002000093D00704700F060
:1004000001B800000CB50022019200922748016853
:1004100041F4803101604FF4A063016801F40031C0
:1004200000910199491C0191009911B901999942D2
:10043000F3D10168890302D50121009100E0009207
:100440000099012930D11A490A6842F010020A6065
:100450000A6822F003020A600A6842F002020A6097
:100460004168416041684160416841F48061416098
:10047000416821F47C114160416841F4E811416018
:10048000016841F08071016001688901FCD5416813
:1004900021F003014160416841F00201416041687F
:1004A000C1F381010229FAD10CBD00000010024005
:1004B000002002407047000010B50F48016841F06D
:1004C0000101016041680D4A1140416001680C4A18
:1004D00011400160016821F480210160416821F42C
:1004E000FE0141604FF41F018160FFF788FF05495D
:1004F0004FF00060086010BD001002400000FFF8DF
:10050000FFFFF6FE08ED00E0002904D0818941F4E8
:10051000005181817047818921F4005181817047A8
:1005200010B586B001210420FFF704FF01218803E4
:10053000FFF700FF4FF40070ADF8140018208DF89D
:10054000170003208DF81600144C05A92046FFF76C
:1005500070FE2115ADF8141004218DF8171005A9AF
:100560002046FFF766FE4FF4E13001900020ADF821
:100570000800ADF80A00ADF80C00ADF810000C2032
:10058000ADF80E00064C01A9204600F013F8012139
:100590002046FFF7B9FF06B010BD0000000801407B
:1005A000003801400246002012880A4200D0012093
:1005B0007047000030B585B004460D46208A4CF6E1
:1005C000FF710840E98801432182A0894EF6F311AA
:1005D0000840A9882A8911436A8902431143A181ED
:1005E000A08A4FF6FF410840A9890143A1826846CD
:1005F000FFF7AEFE1D48844201D1039800E0029847
:10060000A189090408D500EBC00101EB001029689D
:100610004900B0FBF1F007E000EBC00101EB001076
:1006200029688900B0FBF1F06422B0FBF2F1090106
:100630000B096FF018056B4300EB8300A3891D04C1
:100640004FF0320307D503EBC000B0FBF2F000F02F
:100650000700084306E003EB0010B0FBF2F000F0E7
:100660000F000843208105B030BD00000038014074
:10067000C1F3080181807047FEE700000FB4054B0D
:1006800010B503A9044A029800F018F810BC5DF8F0
:1006900014FB0000AD0D00081400002002E008C8A3
:1006A000121F08C1002AFAD170477047002001E0EC
:1006B00001C1121F002AFBD1704700002DE9FF4F36
:1006C0008DB00F460546002606E025280BD0DDE953
:1006D0000F1290476D1C761C28780028F5D111B0B8
:1006E0003046BDE8F08F0024A246A1460122EC4925
:1006F00000E0044315F8013F203B02FA03F00842F2
:10070000F7D128782A2810D06FF02F022878A0F18E
:100710003001092914D80AEB8A0102EB410144F0A7
:10072000020400EB010A6D1CF0E701CF5FEA000A4A
:1007300003D544F40054CAF1000A44F002046D1CCD
:1007400028782E2817D115F8010F44F004042A2820
:100750000ED06FF02F022878A0F1300109290AD8B5
:1007600009EB890102EB410100EB01096D1CF2E785
:1007700057F8049B6D1C28786C280FD006DC4C2899
:1007800017D068280DD06A2814D104E0742810D03E
:100790007A280FD10DE044F400140AE044F48014E8
:1007A00001E044F440146978814202D104F58014D8
:1007B0006D1C6D1C2A786E2A1FD00CDC632A31D088
:1007C00004DC002A8BD0582A11D1A3E0642A68D017
:1007D000692A0CD165E0732A2ED004DC6F2A73D00D
:1007E000702A04D19BE0752A6FD0782A6ED010460B
:1007F000DDE90F129047761C50E1C4F30250022845
:1008000006D0032809D0042801CF09D0066045E1AD
:1008100001CFF117C0E9006140E101CF06803DE161
:1008200006703BE117F8040B8DF8000000208DF8EE
:100830000100EB46012003E057F804BB4FF0FF3006
:1008400061074FF0000102D40DE008F10101884674
:1008500049450FDA8045F8DB1BF808100029F4D170
:1008600008E008F1010188468142FADB1BF8081014
:100870000029F6D1DDE90F23AAEB080081462146C5
:1008800000F036F9304400EB080604E0DDE90F1211
:100890001BF8010B9047B8F10108F7D221464846F2
:1008A000F7E00A21C4F302534FF0000B0891022B2A
:1008B00004D001CFC117032B09D00AE0FF1D27F098
:1008C0000707F7E8020108E032E01FE020E000B28D
:1008D000C117042B01D140B2C117031E71F10003EF
:1008E00007DA4FF0000CD0EB0C006CEB01012D236C
:1008F00002E0230504D52B238DF82430012303E0E7
:10090000E30701D02023F7E7984658E00A2110E0DA
:1009100010210EE010204FF0000B08900CE0102189
:100920004FF0000B44F004044FF00809089103E075
:1009300008214FF0000B0891C4F30253022B04D09E
:1009400001CF0021032B06D006E0FF1D27F007078B
:10095000F7E8020103E080B2042B00D1C0B24FF0EF
:10096000000823072BD5702A07D0DDF820C08CF0B3
:10097000100C5CEA0B0C05D00EE040238DF82430FF
:10098000012308E050EA010306D030238DF824301B
:100990008DF8252002239846DDF820C08CF0080C45
:1009A0005CEA0B0C0BD150EA010301D1630706D5B9
:1009B00030238DF824304FF00108A9F10109582A9D
:1009C00004D038A20B9208AA0A920BE03AA2F9E7E7
:1009D0005B46089AFFF7C8FB0B9B9B5C0A9A521E6A
:1009E0000A92137050EA0102F2D10A98ADEB0000AE
:1009F00000F1200B600702D524F4803401E04FF0B1
:100A00000109D94502DDA9EB0B0000E0002000EB55
:100A10000B0141440890AAEB010AE00306D4DDE98A
:100A20000F232146504600F063F806444FF00009BA
:100A300008E009A911F80900DDE90F12904709F152
:100A40000109761CC145F4DBE0030CD5DDE90F2379
:100A50002146504600F04CF8064404E0DDE90F1250
:100A600030209047761C0899481E08900029F5DC34
:100A700008E00A980A990078491C0A91DDE90F12EA
:100A80009047761CBBF10001ABF1010BF1DC214674
:100A90005046DDE90F2300F019F806446D1C1BE6F3
:100AA0000928010030313233343536373839616244
:100AB0006364656600000000303132333435363708
:100AC0003839414243444546000000002DE9F041D9
:100AD000044600251E461746880404D405E039461E
:100AE0002020B0476D1C641EF9D52846BDE8F08172
:100AF0002DE9F041044600251E469046C80301D565
:100B0000302700E02027880404D505E04146384618
:100B1000B0476D1C641EF9D52846BDE8F08110B5BC
:100B2000044600F0E7F9204600F0BAF900F004FAB4
:100B3000044600F0F3F900F07DF9204610BD2DE9E0
:100B4000F04105460C46164600F0D4F9A02000F00E
:100B5000A7F900F0F1F968B9E0B200F0A1F900F0EE
:100B6000EBF938B900F0C6F9A12000F099F900F0CE
:100B7000E3F920B100F0D2F90020BDE8F0810024B3
:100B8000771E0BE000F068F92855BC4202D000F057
:100B90001FF901E000F04EF9641CA4B2B442F1D395
:100BA00000F0BCF90120E8E770B5ADF5007DA020AC
:100BB000FFF7B5FF01282CD0002040AD2854401C81
:100BC00080B2FF28FAD94FF480742246002140A851
:100BD00000F0AFF8002821D01EA0FFF74FFD2246FD
:100BE00000216846FFF7ABFF00281CD01EA0FFF7CE
:100BF00045FD00246E46285D315D814218D021A05C
:100C0000FFF73CFD21A0FFF739FD00200DF5007D29
:100C100070BD27A0FFF732FD0020F7E72AA0FFF7FD
:100C20002DFD0020F2E72DA0FFF728FD0020EDE7C5
:100C30002FA0FFF723FDE043000702D110A0FFF72C
:100C40001DFD641CA4B2FF2CD5D92BA0FFF716FD07
:100C50000120DBE7D0B4656570726F6DB3C9B9A6CA
:100C6000A3A10D0A00000000B6C1656570726F6D2A
:100C7000B3C9B9A6A3ACCAFDBEDDC8E7CFC2A3BA4B
:100C80000D0A00003078253032582000B4EDCEF344
:100C90003A454550524F4DB6C1B3F6D3EBD0B4C828
:100CA000EBB5C4CAFDBEDDB2BBD2BBD6C2000000EC
:100CB000C3BBD3D0BCECB2E2B5BDB4AED0D04545D9
:100CC00050524F4D210D0A00D0B4656570726F6DA2
:100CD000B3F6B4EDA3A10D0A00000000B6C165652E
:100CE00070726F6DB3F6B4EDA3A10D0A00000000A1
:100CF0002025303258000000656570726F6DB6C1F6
:100D0000D0B4B2E2CAD4B3C9B9A60D0A000000003B
:100D100070B500244FF4803505E02046641CA842DD
:100D200001D3012070BDA020FFF7F9FE0028F4D107
:100D300070BD2DE9F04780460E46914600254FF4E0
:100D40007A7724E00DB1700716D100F0E7F800249F
:100D500000F0D0F8A02000F0A3F800F0EDF818B1F2
:100D6000641CA4B2BC42F3D3BC421BD0F0B200F06E
:100D700097F800F0E1F8A8B918F8050000F090F82D
:100D800000F0DAF870B9761CB6B26D1CADB24D4504
:100D9000D8D300F0C3F8FFF7BBFF012802D0012031
:100DA000BDE8F08700F0BAF80020F9E770B5044616
:100DB000064DE1B22846FFF75BFC80212846FFF78D
:100DC000F1FB0028F9D0204670BD0000003801403A
:100DD0002DE9F041074D08242C6000F025F82F1F65
:100DE00004263E6000F020F82E6000F01DF83C6004
:100DF000BDE8F0811408014008B501210420FFF787
:100E000099FA0C20ADF8000003208DF802001420A0
:100E10008DF8030069460348FFF70BFA00F07EF8EF
:100E200008BD0000000801400020401CC0B20A2894
:100E3000FBD3704770B5074D08202860FFF7F4FF1B
:100E400004242C60FFF7F0FF281D0460BDE870400B
:100E5000FFF7EABF100801402DE9F0470024002504
:100E60000E4EDFF838800427A8F1080806F10409BF
:100E70006006040E3760FFF7D7FFD8F800000007C0
:100E800001D5641CE4B2C9F80070FFF7CDFF6D1CFA
:100E9000EDB2082DECD32046BDE8F08710080140E4
:100EA0002DE9F04705460024DFF8449004264FF072
:100EB0000808A9F10407280602D5C7F8008001E058
:100EC000C9F80080FFF7B0FF3E60FFF7ADFFC9F83B
:100ED0000060072C01D1C7F800806806050EFFF7F7
:100EE000A3FF641CE4B2082CE5D3BDE8F087000042
:100EF0001408014070B50848082404600425056002
:100F0000FFF792FF044E361D3460FFF78DFF35600A
:100F1000BDE87040FFF788BF1008014070B5054874
:100F200008240460034D04202D1F2860FFF77CFF78
:100F30002C6070BD1408014070B50C4C0820206076
:100F4000FFF772FF04252560FFF76EFF074808389A
:100F50000068000701D5012400E000240348001DBB
:100F60000560FFF761FF204670BD000010080140DA
:100F7000FFF7B6F9FFF7D4FAFFF73EFF06A0FFF739
:100F80007DFBFFF711FE0C49012802D004204861C7
:100F9000FEE708204861FBE7656570726F6D20C849
:100FA000EDBCFEC4A3C4E2693263B2E2CAD4C0FDA0
:100FB000B3CC200D0A00000000100140DC0F000837
:100FC00000000020180000009C060008F40F000834
:100FD0001800002000040000AC0600080204060807
:100FE00000000000010203040102030406070809CF
:040FF00000000000FD
:0400000508000131BD
:00000001FF
