:020000040800F2
:10000000D01A0020450100084D06000845060008EA
:1000100049060008F5020008230D00080000000052
:1000200000000000000000000000000011080008AF
:10003000F902000800000000F9060008FD080008A9
:100040005F0100085F0100085F0100085F01000810
:100050005F0100085F0100085F0100085F01000800
:100060005F0100085F0100085F0100085F010008F0
:100070005F0100085F0100085F0100085F010008E0
:100080005F0100085F0100085F0100085F010008D0
:100090005F0100085F0100085F0100085F010008C0
:1000A0005F0100085F0100085F0100085F010008B0
:1000B0005F0100085F0100085F0100085F010008A0
:1000C0005F0100085F0100085F0100085F01000890
:1000D0005F0100085F010008B10A00085F01000825
:1000E0005F0100085F0100085F0100085F01000870
:1000F0005F0100085F0100085F0100085F01000860
:100100005F0100085F0100085F0100085F0100084F
:100110005F0100085F0100085F0100085F0100083F
:100120005F0100085F0100085F0100085F0100082F
:10013000DFF80CD000F05CF80048004769110008B7
:10014000D01A00200648804706480047FEE7FEE731
:10015000FEE7FEE7FEE7FEE7FEE7FEE7FEE7FEE777
:10016000A90900083101000830B505462A460B46AA
:1001700012F8010B13F8014B08B1A042F8D01CB1E2
:10018000002802D06D1CF1E7284630BD2DE9F05F54
:100190000546002092469B468846064681464024F6
:1001A0001BE0284641464746224600F042F85346A7
:1001B0005A46C01A914110D311461846224600F003
:1001C00029F82D1A67EB01084F462246012000212D
:1001D00000F020F817EB00094E41201EA4F10104A5
:1001E000DFDC484631462A464346BDE8F09F000022
:1001F000064C074D06E0E06840F0010394E8070074
:1002000098471034AC42F6D3FFF796FF4C13000822
:100210006C130008202A04DB203A00FA02F10020C7
:1002200070479140C2F1200320FA03F31943904034
:100230007047202A04DB203A21FA02F0002170479F
:1002400021FA02F3D040C2F120029140084319463E
:100250007047000000B585B00121480400F04EFA57
:100260000121042000F05AFA0420ADF810001820F3
:100270008DF8130003208DF8120004A91B4800F02C
:100280003CF80820ADF8100004208DF8130004A9F4
:10029000164800F032F84FF4164000900020ADF8F8
:1002A0000400ADF80600ADF80800ADF80C000C2015
:1002B000ADF80A0069460E4800F0BEFC012240F28B
:1002C00024410B4800F093FC00F0C1F9012240F2F8
:1002D0002551074800F08BFC0121054800F004FC83
:1002E0004021034800F0E8FB05B000BD00080140D4
:1002F0000044004000BFFEE770472DE9F041024690
:1003000000250026002000230024002791F803C0C8
:100310000CF00F0591F803C00CF0100CBCF1000FAD
:1003200003D091F802C04CEA050591F800C0BCF179
:10033000000F31D0146800202BE04FF0010C0CFAB4
:1003400000F3B1F800C00CEA03069E4220D18300FE
:100350004FF00F0C0CFA03F7BC4305FA03FC4CEA10
:10036000040491F803C0BCF1280F06D14FF0010C32
:100370000CFA00FCC2F814C00AE091F803C0BCF10A
:10038000480F05D14FF0010C0CFA00FCC2F810C068
:10039000401C0828D1D31460B1F800C0BCF1FF0F95
:1003A00034DD546800202EE000F1080C4FF0010805
:1003B00008FA0CF3B1F800C00CEA03069E4221D102
:1003C00083004FF00F0C0CFA03F7BC4305FA03FC53
:1003D0004CEA040491F803C0BCF1280F05D100F1E8
:1003E000080C08FA0CF8C2F8148091F803C0BCF1AC
:1003F000480F07D100F1080C4FF0010808FA0CF87B
:10040000C2F81080401C0828CED35460BDE8F081AB
:100410000246002093680B400BB1012000E0002051
:10042000704701617047000008B50121102000F0FD
:1004300075F92020ADF8000004208DF8030003209A
:100440008DF8020069460848FFF757FF8020ADF895
:10045000000010208DF8030003208DF8020069468B
:100460000148FFF74AFF08BD0008014010B5FFF73B
:10047000DBFFFFF7EFFE002416E004EBC40101EB05
:1004800004120F4901EB42000EA100F079FC04EBCD
:10049000C40101EB04120A49FA3101EB420009A13F
:1004A00000F06EFC601CC4B2052CE6DB00200449A1
:1004B0002C390870012104A000F00AF810BD0000DA
:1004C000780400202000000041540D0A00000000C4
:1004D0002DE9F84304460D4605274FF0010945E094
:1004E00080212B48FFF79DFF0A2000F025FF2146C1
:1004F000284800F027FC4FF000082DE00A2000F00B
:100500001BFF684600F026FE0646BDF800000028E6
:100510001BDD307868B100BF224644211EA000F0E8
:100520001FFC00BF00BF3246462124A000F018FC8B
:1005300000BF2BA13046FFF717FE48B1012D01D1B6
:1005400000F0E2FD0020BDE8F883642000F0F4FE36
:1005500008F1010000F0FF08B8F1140FCEDB00BF76
:100560003A4659211FA000F0FBFB00BF381EA7F13F
:100570000101CFB2B4D100BF5C2127A000F0F0FB95
:1005800000BF012D01D100F0BFFD4846DBE70000B0
:1005900000080140004400403C3C2D484330352DCC
:1005A00044454255472D3E3E205B25645D73656E94
:1005B0006420434D443A2025730A00003C3C2D48FA
:1005C0004330352D44454255472D3E3E205B256442
:1005D0005D726563656976652025730A0000000019
:1005E0004F4B00003C3C2D484330352D444542558F
:1005F000472D3E3E205B25645D48433035207365C2
:100600006E6420434D44206661696C20256420742B
:10061000696D65730A0000003C3C2D484330352D60
:1006200044454255472D3E3E205B25645D4843309E
:10063000352073656E6420434D44206661696C20EB
:100640000A00000000BFFEE700BFFEE7704708B5E4
:100650004FF4E06000F046F826208DF800000120FD
:100660008DF801008DF802008DF80300684600F057
:1006700001F808BD70B5002100230F22C47804B32F
:10068000154C246804F4E064C4F5E064210AC1F167
:100690000403CA40447804FA03F1847814402143E7
:1006A00009010E4C0678A155047804F01F050124B9
:1006B000AC4005786D11AD0005F1E025C5F80041AD
:1006C00009E0047804F01F050124AC40044D0678CD
:1006D000761145F8264070BD0CED00E000E400E026
:1006E00080E100E002490143024A116070470000C6
:1006F0000000FA050CED00E07047000029B1064A41
:10070000D2690243044BDA6104E0034AD2698243AE
:10071000014BDA61704700000010024029B1064A1F
:1007200092690243044B9A6104E0034A926982434E
:10073000014B9A61704700000010024030B5002163
:100740000022002400232D4D6D6805F00C0121B11D
:10075000042905D0082923D105E0294D056022E0B0
:10076000274D05601FE0254D6D6805F47012234D7F
:100770006D6805F48034022505EB92421CB9214DC9
:10078000554305600BE01D4D6D6805F400351DB146
:100790001C4D5543056002E0194D5543056002E0CC
:1007A000174D056000BF00BF144D6D6805F0F001E6
:1007B0000909154D6B5C0568DD4045600F4D6D689E
:1007C00005F4E061090A104D6B5C4568DD40856009
:1007D0000A4D6D6805F46051C90A0B4D6B5C4568A4
:1007E000DD40C560054D6D6805F44041890B074D3E
:1007F0006B5CC568B5FBF3F5056130BD00100240C8
:1008000000127A0000093D0014000020240000209E
:10081000704710B500F002F810BD00000CB50020C4
:10082000019000903348006840F4803031490860FE
:1008300000BF3048006800F4003000900198401C70
:100840000190009818B90198B0F5A06FF1D129482E
:10085000006800F4003010B10120009001E0002099
:1008600000900098012843D12348006840F0100010
:10087000214908600846006820F003000860084627
:10088000006840F0020008601A4840681949486052
:100890000846406848600846406840F48060486008
:1008A0000846406820F47C1048600846406840F4E0
:1008B000E81048600846006840F08070086000BF9B
:1008C0000C48006800F000700028F9D00948406822
:1008D00020F00300074948600846406840F00200E5
:1008E000486000BF0348406800F00C000828F9D1B8
:1008F0000CBD0000001002400020024010B500F0C6
:10090000CBF800F0C1F800240CE0084850F82400AF
:1009100030B1064850F82400401E044941F8240034
:10092000601CC4B2032CF0DB10BD000040040020AA
:1009300030B51A4800684FF47A72B0FBF2F1B1F1A9
:10094000807F01D301201DE021F07F40401E4FF049
:10095000E022506150170F22002807DA13071D0EFE
:100960000F4B00F00F04241F1D5503E013071C0E4E
:100970000C4B1C5400BF00204FF0E0229061072078
:100980001061002008B100BFFEE74FF0E0200069D1
:1009900020F001004FF0E021086130BD0000002090
:1009A00018ED00E000E400E010B51348006840F0E6
:1009B00001001149086008464068104908400E4986
:1009C0004860084600680E4908400B490860084620
:1009D000006820F4802008600846406820F4FE008B
:1009E00048604FF41F008860FFF713FF4FF000606E
:1009F0000449086010BD0000001002400000FFF82C
:100A0000FFFFF6FE08ED00E038B51448006820BB93
:100A100020211348FFF7FCFCF8B112480068E0B948
:100A2000684600F097FB0446BDF80000C82810DABD
:100A3000BDF8000068B121460B4800F0A1F90A4951
:100A40000AA000F08DF900F05FFB0BA10D4800F04B
:100A500079F94FF47A700149086038BD40040020EC
:100A600000080140340000206C0A00200A7265630F
:100A7000656976653D257300536C6176653A4F4B29
:100A80000D0A00000044004002480068401C014973
:100A900008607047300000200448006820B1034817
:100AA0000068401E01490860704700002C000020CB
:100AB00010B500F0EFFA10BD01F40072B2F5007F3E
:100AC00000D100BFCA430280704710B50022002346
:100AD00040F66A14A14200D100BF0A1201249440DA
:100AE000A3B2DC43048010BD21B1828942F40052DC
:100AF000828104E082894DF6FF731A40828170473B
:100B000000B585B001210420FFF708FE012188030C
:100B1000FFF704FE4FF40070ADF8100018208DF8B8
:100B2000130003208DF8120004A91348FFF7E5FB1A
:100B30004FF48060ADF8100004208DF8130004A974
:100B40000D48FFF7DAFB4FF4E13000900020ADF8DC
:100B50000400ADF80600ADF80800ADF80C000C205C
:100B6000ADF80A006946054800F066F8012103481F
:100B7000FFF7BAFF05B000BD000801400038014092
:100B800002460020B1F5007F00D100BF13880B4062
:100B90000BB1012000E00020704770B50246002430
:100BA00000230025002040F66A16B14200D100BFA4
:100BB000C1F3421501F01F03012606FA03F3012DCC
:100BC00002D19689334006E0022D02D1168A3340C5
:100BD00001E0968A33400C12012606FA04F41688C6
:100BE000344013B10CB1012000E0002070BDF0B51D
:100BF0000346002400260025002040F66A17B9426B
:100C000000D100BF1846C1F3421401F01F060127AE
:100C100007FA06F5012C01D10C3004E0022C01D1B9
:100C2000103000E014301AB107682F43076002E06B
:100C30000768AF430760F0BD2DE9F04786B0054671
:100C40000E460024A24600BFA1460027B08900B18D
:100C500000BF2F462C8A4CF6FF700440F0880443F6
:100C60002C82AC894EF6F3100440B08831890843D9
:100C7000718908430443AC81AC8A4FF6FF400440BD
:100C8000B0890443AC8201A8FFF758FD1F48874292
:100C900002D1DDF810A001E0DDF80CA0A88900F475
:100CA000004040B10AEBCA0000EB0A10316849006D
:100CB000B0FBF1F807E00AEBCA0000EB0A1031685C
:100CC0008900B0FBF1F86420B8FBF0F004012009C2
:100CD000642101FB1089A88900F4004040B1322052
:100CE00000EBC900B0FBF1F000F00700044308E09E
:100CF000322000EB09106421B0FBF1F000F00F008E
:100D000004432C8106B0BDE8F087000000380140A4
:100D100001468888C0F308007047C1F3080282804A
:100D2000704700BFFEE770B504460D4629462046D1
:100D3000FFF7F3FF00BF80212046FFF721FF0028C7
:100D4000F9D070BD70B506460C46002500BF615D48
:100D50003046FFF7E8FF6D1C605D0028F7D170BDDD
:100D60000FB4054B10B503A9044A029800F02CF803
:100D700010BC5DF814FB0000311100083C0000209D
:100D80000FB4084B10B504A902AA039800F01CF890
:100D9000044602A9002000F077F9204610BC5DF857
:100DA00014FB00008910000802E008C8121F08C1E7
:100DB000002AFAD170477047002001E001C1121FDC
:100DC000002AFBD1704700002DE9FF4F8DB09B46F4
:100DD0000F460446002606E025280BD05A460F99F8
:100DE0009047641C761C20780028F5D111B030465D
:100DF000BDE8F08F0025A8460122984900E0054390
:100E000014F8013F203B02FA03F00842F7D12078A2
:100E10002E2817D114F8010F45F004052A280ED00A
:100E20006FF02F022078A0F1300109290AD808EBD1
:100E3000880102EB410100EB0108641CF2E757F85E
:100E4000048B641C20786C280DD004DC4C2812D054
:100E50006A2811D104E074280DD07A280CD10AE058
:100E600045F4001507E0617845F48015814202D110
:100E7000641C05F58015641C2278692A45D008DCBD
:100E8000002AB3D0582A69D0632A10D0642A08D126
:100E90003BE0702A67D0732A13D0752A5CD0782A79
:100EA0005CD010465A460F999047761CD3E017F84D
:100EB000040B8DF8000000208DF80100E9460120A8
:100EC00003E057F8049B4FF0FF3069074FF000052F
:100ED00001D40AE06D1C45450DDA8542FADB19F8AC
:100EE00005100029F6D106E06D1C8542FCDB19F8DF
:100EF00005100029F8D12E4404E019F8010B5A46D8
:100F00000F9990476D1EF8D2A5E00A200021CDE987
:100F10000801C5F3025002280DD001CFC117031EEE
:100F200071F100030DDA4FF0000CD0EB0C006CEB0C
:100F300001012D2308E0FF1D27F00707F7E8020154
:100F4000EDE72B0504D52B238DF8283001233BE05A
:100F5000EB0739D02023F7E70A2000E0102000211A
:100F6000CDE9080107E01020002145F00405CDE996
:100F700008014FF00808C5F3025002280FD001CF36
:100F800000214FF0000A2B071FD5702A0DD0DDE994
:100F900008C38CF0100C5CEA030C0CD015E0FF1DAC
:100FA00027F00707F7E80201EBE740228DF8282039
:100FB0004FF0010A0BE050EA010306D030238DF810
:100FC00028308DF8292002239A46582A04D024A2DA
:100FD0000DF120090B9209E026A2F9E7DDE90823CB
:100FE000FFF7D4F80B9B9B5C09F8013D50EA010226
:100FF000F4D1ADEB090020300890680701D44FF020
:1010000001080899884502DDA8EB010000E00020F6
:101010008046002506E00AA85A46405D0F99904791
:101020006D1C761C5545F6DB04E030205A460F99BE
:101030009047761CB8F10001A8F10108F5DC05E045
:1010400019F8010B5A460F999047761C0899481ECB
:1010500008900029F4DC641CC5E6000009280100A2
:10106000303132333435363738396162636465661E
:1010700000000000303132333435363738394142E0
:1010800043444546000000000A68531C0B60107082
:101090007047000010B518480088B0F5806F15DA69
:1010A00040F225511548FFF778FDB0B101201449F1
:1010B00008601248FFF72CFE12490F4A1288885424
:1010C0000D480088401C0C49088006E040F225517C
:1010D0000A48FFF7FAFC00F017F840F224410748ED
:1010E000FFF75BFD012805D1002005490860034892
:1010F000FFF70EFE10BD0000280000200044004055
:10110000340000204000002040F201400021064A47
:10111000118005E00022411E89B20846034B5A5453
:101120000028F7D170470000280000204000002070
:1011300070B504460D46E1B20548FFF7EEFD00BF6D
:1011400080210348FFF71CFD0028F9D0204670BD20
:101150000038014001460248008808800148704775
:1011600028000020400000208AB0FFF7E1FB4FF08C
:10117000E020006940F001004FF0E0210861FFF736
:10118000BFFC29A0FFF7ECFDFFF770F918B92DA0FF
:10119000FFF7E6FD04E033A0FFF7E2FD00BFFEE746
:1011A000012137A0FFF794F94FF4487000F0C4F81C
:1011B000012136A0FFF78CF9C82000F0BDF801210D
:1011C00035A0FFF785F9012137A0FFF781F901214B
:1011D00038A0FFF77DF9012139A0FFF779F9012146
:1011E0003AA0FFF775F901213BA0FFF771F93DA186
:1011F0006846FFF7C5FD012140A0FFF769F901210D
:1012000041A0FFF765F9012143A0FFF761F9012132
:101210006846FFF75DF9002144A0FFF759F901E0A6
:10122000FFF7F2FBFCE700003C3C2D484330352D36
:10123000494E464F2D3E3E20746573742048432D21
:1012400030350A003C3C2D484330352D494E464F41
:101250002D3E3E20484330352E2E2E4F4BA1A30A63
:10126000000000003C3C2D484330352D4552524F84
:10127000522D3E3E20496E6974204661696C0A0019
:1012800041542B52455345540D0A000041542B4FF5
:1012900052474C0D0A00000041542B564552534909
:1012A0004F4E3F0D0A00000041542B414444523F31
:1012B0000D0A000041542B554152543F0D0A0000C5
:1012C00041542B434D4F44453F0D0A0041542B538D
:1012D000544154453F0D0A0041542B524F4C453D5B
:1012E000300D0A0041542B4E414D453D48433035A9
:1012F0005F534C4156450D0A0000000041542B49F4
:101300004E49540D0A00000041542B434C415353A5
:101310003D300D0A0000000041542B494E514D3D17
:10132000312C392C34380D0A0000000041542B496F
:101330004E510D0A000000000349086000BF024939
:1013400009680029FBD170472C0000206C130008AD
:101350000000002040000000A80D0008AC130008A9
:1013600040000020901A0000B80D000800A24A04B6
:101370000000000000000000010203040607080945
:10138000000000000102030401020304060708092B
:101390000204060800000000000000000000000039
:0C13A00000000000010000000000000040
:0400000508000145A9
:00000001FF
